{
  "_format": "hh-sol-artifact-1",
  "contractName": "TreasureHuntCreator",
  "sourceName": "contracts/TreasureHuntCreator.sol",
  "abi": [
    {
      "inputs": [
        {
          "internalType": "address[]",
          "name": "solutions_",
          "type": "address[]"
        },
        {
          "internalType": "address[]",
          "name": "keys",
          "type": "address[]"
        },
        {
          "internalType": "address",
          "name": "prize_",
          "type": "address"
        }
      ],
      "stateMutability": "nonpayable",
      "type": "constructor"
    },
    {
      "anonymous": false,
      "inputs": [
        {
          "indexed": true,
          "internalType": "address",
          "name": "player",
          "type": "address"
        },
        {
          "indexed": true,
          "internalType": "uint256",
          "name": "completedChapter",
          "type": "uint256"
        }
      ],
      "name": "ChapterCompleted",
      "type": "event"
    },
    {
      "anonymous": false,
      "inputs": [
        {
          "indexed": false,
          "internalType": "address",
          "name": "msgSender",
          "type": "address"
        }
      ],
      "name": "IncrementCounter",
      "type": "event"
    },
    {
      "anonymous": false,
      "inputs": [
        {
          "indexed": true,
          "internalType": "address",
          "name": "player",
          "type": "address"
        },
        {
          "indexed": true,
          "internalType": "uint256",
          "name": "completedKey",
          "type": "uint256"
        }
      ],
      "name": "KeyCompleted",
      "type": "event"
    },
    {
      "anonymous": false,
      "inputs": [
        {
          "indexed": true,
          "internalType": "address",
          "name": "previousOwner",
          "type": "address"
        },
        {
          "indexed": true,
          "internalType": "address",
          "name": "newOwner",
          "type": "address"
        }
      ],
      "name": "OwnershipTransferred",
      "type": "event"
    },
    {
      "anonymous": false,
      "inputs": [
        {
          "indexed": true,
          "internalType": "bytes32",
          "name": "role",
          "type": "bytes32"
        },
        {
          "indexed": true,
          "internalType": "bytes32",
          "name": "previousAdminRole",
          "type": "bytes32"
        },
        {
          "indexed": true,
          "internalType": "bytes32",
          "name": "newAdminRole",
          "type": "bytes32"
        }
      ],
      "name": "RoleAdminChanged",
      "type": "event"
    },
    {
      "anonymous": false,
      "inputs": [
        {
          "indexed": true,
          "internalType": "bytes32",
          "name": "role",
          "type": "bytes32"
        },
        {
          "indexed": true,
          "internalType": "address",
          "name": "account",
          "type": "address"
        },
        {
          "indexed": true,
          "internalType": "address",
          "name": "sender",
          "type": "address"
        }
      ],
      "name": "RoleGranted",
      "type": "event"
    },
    {
      "anonymous": false,
      "inputs": [
        {
          "indexed": true,
          "internalType": "bytes32",
          "name": "role",
          "type": "bytes32"
        },
        {
          "indexed": true,
          "internalType": "address",
          "name": "account",
          "type": "address"
        },
        {
          "indexed": true,
          "internalType": "address",
          "name": "sender",
          "type": "address"
        }
      ],
      "name": "RoleRevoked",
      "type": "event"
    },
    {
      "inputs": [],
      "name": "DEFAULT_ADMIN_ROLE",
      "outputs": [
        {
          "internalType": "bytes32",
          "name": "",
          "type": "bytes32"
        }
      ],
      "stateMutability": "view",
      "type": "function"
    },
    {
      "inputs": [],
      "name": "GAME_MASTER_ROLE",
      "outputs": [
        {
          "internalType": "bytes32",
          "name": "",
          "type": "bytes32"
        }
      ],
      "stateMutability": "view",
      "type": "function"
    },
    {
      "inputs": [
        {
          "internalType": "address",
          "name": "solution",
          "type": "address"
        }
      ],
      "name": "addSolution",
      "outputs": [],
      "stateMutability": "nonpayable",
      "type": "function"
    },
    {
      "inputs": [
        {
          "internalType": "uint96",
          "name": "",
          "type": "uint96"
        },
        {
          "internalType": "uint256",
          "name": "",
          "type": "uint256"
        }
      ],
      "name": "chapterToPlayers",
      "outputs": [
        {
          "internalType": "address",
          "name": "",
          "type": "address"
        }
      ],
      "stateMutability": "view",
      "type": "function"
    },
    {
      "inputs": [
        {
          "internalType": "address",
          "name": "",
          "type": "address"
        }
      ],
      "name": "contextCounter",
      "outputs": [
        {
          "internalType": "uint256",
          "name": "",
          "type": "uint256"
        }
      ],
      "stateMutability": "view",
      "type": "function"
    },
    {
      "inputs": [],
      "name": "currentChapter",
      "outputs": [
        {
          "internalType": "uint96",
          "name": "",
          "type": "uint96"
        }
      ],
      "stateMutability": "view",
      "type": "function"
    },
    {
      "inputs": [
        {
          "internalType": "uint256",
          "name": "",
          "type": "uint256"
        }
      ],
      "name": "gameMasters",
      "outputs": [
        {
          "internalType": "address",
          "name": "",
          "type": "address"
        }
      ],
      "stateMutability": "view",
      "type": "function"
    },
    {
      "inputs": [
        {
          "internalType": "address",
          "name": "a",
          "type": "address"
        }
      ],
      "name": "getAddressHash",
      "outputs": [
        {
          "internalType": "bytes32",
          "name": "",
          "type": "bytes32"
        }
      ],
      "stateMutability": "pure",
      "type": "function"
    },
    {
      "inputs": [
        {
          "internalType": "uint256",
          "name": "page",
          "type": "uint256"
        }
      ],
      "name": "getLeaderboard",
      "outputs": [
        {
          "internalType": "uint256[32]",
          "name": "leaderboard",
          "type": "uint256[32]"
        }
      ],
      "stateMutability": "view",
      "type": "function"
    },
    {
      "inputs": [],
      "name": "getQuestsRootCID",
      "outputs": [
        {
          "internalType": "bytes",
          "name": "",
          "type": "bytes"
        }
      ],
      "stateMutability": "view",
      "type": "function"
    },
    {
      "inputs": [
        {
          "internalType": "bytes32",
          "name": "role",
          "type": "bytes32"
        }
      ],
      "name": "getRoleAdmin",
      "outputs": [
        {
          "internalType": "bytes32",
          "name": "",
          "type": "bytes32"
        }
      ],
      "stateMutability": "view",
      "type": "function"
    },
    {
      "inputs": [
        {
          "internalType": "bytes32",
          "name": "role",
          "type": "bytes32"
        },
        {
          "internalType": "address",
          "name": "account",
          "type": "address"
        }
      ],
      "name": "grantRole",
      "outputs": [],
      "stateMutability": "nonpayable",
      "type": "function"
    },
    {
      "inputs": [
        {
          "internalType": "bytes32",
          "name": "role",
          "type": "bytes32"
        },
        {
          "internalType": "address",
          "name": "account",
          "type": "address"
        }
      ],
      "name": "hasRole",
      "outputs": [
        {
          "internalType": "bool",
          "name": "",
          "type": "bool"
        }
      ],
      "stateMutability": "view",
      "type": "function"
    },
    {
      "inputs": [
        {
          "internalType": "address",
          "name": "",
          "type": "address"
        }
      ],
      "name": "keyToPos",
      "outputs": [
        {
          "internalType": "uint8",
          "name": "",
          "type": "uint8"
        }
      ],
      "stateMutability": "view",
      "type": "function"
    },
    {
      "inputs": [],
      "name": "owner",
      "outputs": [
        {
          "internalType": "address",
          "name": "",
          "type": "address"
        }
      ],
      "stateMutability": "view",
      "type": "function"
    },
    {
      "inputs": [
        {
          "internalType": "address",
          "name": "",
          "type": "address"
        }
      ],
      "name": "playerToCurrentChapter",
      "outputs": [
        {
          "internalType": "uint96",
          "name": "",
          "type": "uint96"
        }
      ],
      "stateMutability": "view",
      "type": "function"
    },
    {
      "inputs": [
        {
          "internalType": "address",
          "name": "",
          "type": "address"
        }
      ],
      "name": "playerToKeys",
      "outputs": [
        {
          "internalType": "uint80",
          "name": "",
          "type": "uint80"
        }
      ],
      "stateMutability": "view",
      "type": "function"
    },
    {
      "inputs": [
        {
          "internalType": "uint256",
          "name": "",
          "type": "uint256"
        }
      ],
      "name": "players",
      "outputs": [
        {
          "internalType": "address",
          "name": "",
          "type": "address"
        }
      ],
      "stateMutability": "view",
      "type": "function"
    },
    {
      "inputs": [],
      "name": "prize",
      "outputs": [
        {
          "internalType": "contract ITreasure",
          "name": "",
          "type": "address"
        }
      ],
      "stateMutability": "view",
      "type": "function"
    },
    {
      "inputs": [],
      "name": "questsRootCid",
      "outputs": [
        {
          "internalType": "bytes",
          "name": "",
          "type": "bytes"
        }
      ],
      "stateMutability": "view",
      "type": "function"
    },
    {
      "inputs": [],
      "name": "renounceOwnership",
      "outputs": [],
      "stateMutability": "nonpayable",
      "type": "function"
    },
    {
      "inputs": [
        {
          "internalType": "bytes32",
          "name": "role",
          "type": "bytes32"
        },
        {
          "internalType": "address",
          "name": "account",
          "type": "address"
        }
      ],
      "name": "renounceRole",
      "outputs": [],
      "stateMutability": "nonpayable",
      "type": "function"
    },
    {
      "inputs": [
        {
          "internalType": "bytes32",
          "name": "role",
          "type": "bytes32"
        },
        {
          "internalType": "address",
          "name": "account",
          "type": "address"
        }
      ],
      "name": "revokeRole",
      "outputs": [],
      "stateMutability": "nonpayable",
      "type": "function"
    },
    {
      "inputs": [
        {
          "internalType": "bytes",
          "name": "questsRootCid_",
          "type": "bytes"
        }
      ],
      "name": "setup",
      "outputs": [],
      "stateMutability": "nonpayable",
      "type": "function"
    },
    {
      "inputs": [
        {
          "internalType": "uint256",
          "name": "",
          "type": "uint256"
        }
      ],
      "name": "solutions",
      "outputs": [
        {
          "internalType": "address",
          "name": "",
          "type": "address"
        }
      ],
      "stateMutability": "view",
      "type": "function"
    },
    {
      "inputs": [
        {
          "internalType": "uint8",
          "name": "v",
          "type": "uint8"
        },
        {
          "internalType": "bytes32",
          "name": "r",
          "type": "bytes32"
        },
        {
          "internalType": "bytes32",
          "name": "s",
          "type": "bytes32"
        }
      ],
      "name": "submit",
      "outputs": [],
      "stateMutability": "nonpayable",
      "type": "function"
    },
    {
      "inputs": [
        {
          "internalType": "uint8",
          "name": "v",
          "type": "uint8"
        },
        {
          "internalType": "bytes32",
          "name": "r",
          "type": "bytes32"
        },
        {
          "internalType": "bytes32",
          "name": "s",
          "type": "bytes32"
        }
      ],
      "name": "submitKey",
      "outputs": [],
      "stateMutability": "nonpayable",
      "type": "function"
    },
    {
      "inputs": [
        {
          "internalType": "bytes4",
          "name": "interfaceId",
          "type": "bytes4"
        }
      ],
      "name": "supportsInterface",
      "outputs": [
        {
          "internalType": "bool",
          "name": "",
          "type": "bool"
        }
      ],
      "stateMutability": "view",
      "type": "function"
    },
    {
      "inputs": [],
      "name": "totalChapters",
      "outputs": [
        {
          "internalType": "uint256",
          "name": "",
          "type": "uint256"
        }
      ],
      "stateMutability": "view",
      "type": "function"
    },
    {
      "inputs": [],
      "name": "totalKeys",
      "outputs": [
        {
          "internalType": "uint8",
          "name": "",
          "type": "uint8"
        }
      ],
      "stateMutability": "view",
      "type": "function"
    },
    {
      "inputs": [
        {
          "internalType": "address",
          "name": "newOwner",
          "type": "address"
        }
      ],
      "name": "transferOwnership",
      "outputs": [],
      "stateMutability": "nonpayable",
      "type": "function"
    }
  ],
  "bytecode": "0x60806040523480156200001157600080fd5b506040516200265438038062002654833981016040819052620000349162000476565b6200003f3362000163565b82516200005490600890602086019062000315565b50600c80546001600160a01b0319166001600160a01b03831617905560005b82518160ff161015620000ff576200008d81600162000508565b60056000858460ff1681518110620000a957620000a962000524565b60200260200101516001600160a01b03166001600160a01b0316815260200190815260200160002060006101000a81548160ff021916908360ff1602179055508080620000f6906200053a565b91505062000073565b5081516007805460ff191660ff9092169190911790556200012b600062000125620001b3565b620001d7565b6200015a7f1d93c87416ca7b54f0fb8323167b72760e8e2ec93d48660953897a150f97a8b462000125620001b3565b5050506200055c565b600080546001600160a01b038381166001600160a01b0319831681178455604051919092169283917f8be0079c531659141344cd1fd0a4f28419497f9722a3daafe3b4186f6b6457e09190a35050565b6000620001c03362000260565b620001ca57503390565b5060131936013560601c90565b60008281526001602090815260408083206001600160a01b038516845290915290205460ff166200025c5760008281526001602081815260408084206001600160a01b0386168086529252808420805460ff19169093179092559051339285917f2f8788117e7eff1d82e926ec794901d17c78024a50270940304540a733656f0d9190a45b5050565b600046610144148062000274575046610118145b15620002c8576001600160a01b0382167322dcc39b2ac376862183dd35a1664798dafc7da61480620002c257506001600160a01b03821673ba4082f4961c8fb76231995c967cd9aa40f321b5145b92915050565b6001600160a01b03821673b539068872230f20456cf38ec52ef2f91af4ae491480620002c257506001600160a01b038216738598806401a63ddf52473f1b3c55bc9e33e2d73b1492915050565b8280548282559060005260206000209081019282156200036d579160200282015b828111156200036d57825182546001600160a01b0319166001600160a01b0390911617825560209092019160019091019062000336565b506200037b9291506200037f565b5090565b5b808211156200037b576000815560010162000380565b634e487b7160e01b600052604160045260246000fd5b80516001600160a01b0381168114620003c457600080fd5b919050565b600082601f830112620003db57600080fd5b815160206001600160401b0380831115620003fa57620003fa62000396565b8260051b604051601f19603f8301168101818110848211171562000422576200042262000396565b6040529384528581018301938381019250878511156200044157600080fd5b83870191505b848210156200046b576200045b82620003ac565b8352918301919083019062000447565b979650505050505050565b6000806000606084860312156200048c57600080fd5b83516001600160401b0380821115620004a457600080fd5b620004b287838801620003c9565b94506020860151915080821115620004c957600080fd5b50620004d886828701620003c9565b925050620004e960408501620003ac565b90509250925092565b634e487b7160e01b600052601160045260246000fd5b60ff8181168382160190811115620002c257620002c2620004f2565b634e487b7160e01b600052603260045260246000fd5b600060ff821660ff8103620005535762000553620004f2565b60010192915050565b6120e8806200056c6000396000f3fe608060405234801561001057600080fd5b50600436106101e45760003560e01c8063888fa4a21161010f578063b71698c7116100a2578063e3ac5d2611610071578063e3ac5d26146104f7578063f2fde38b1461050a578063f71d96cb1461051d578063fbc20d841461053057600080fd5b8063b71698c714610456578063bbfff46114610469578063c3d8bfed146104dc578063d547741f146104e457600080fd5b80639ded06df116100de5780639ded06df146103f4578063a217fddf14610407578063a34b46fe1461040f578063ad1def1e1461042f57600080fd5b8063888fa4a21461037c5780638da5cb5b146103bd57806391d14854146103ce5780639bd0dbb8146103e157600080fd5b8063488bdabc116101875780638006a174116101565780638006a1741461030b578063817584b91461031e57806382b7616814610349578063832e16951461036957600080fd5b8063488bdabc146102c9578063626bb7fb146102e8578063715018a6146102fb57806376f0a0e81461030357600080fd5b8063248a9ca3116101c3578063248a9ca31461023c5780632f2ff15d1461026057806336568abe14610275578063385e18dd1461028857600080fd5b8062d25c23146101e957806301ffc9a7146102075780630db4e5f11461022a575b600080fd5b6101f1610553565b6040516101fe9190611ab2565b60405180910390f35b61021a610215366004611ac5565b6105e1565b60405190151581526020016101fe565b6008545b6040519081526020016101fe565b61022e61024a366004611aef565b6000908152600160208190526040909120015490565b61027361026e366004611b24565b610618565b005b610273610283366004611b24565b610643565b6102b1610296366004611b50565b6004602052600090815260409020546001600160601b031681565b6040516001600160601b0390911681526020016101fe565b6007546102d69060ff1681565b60405160ff90911681526020016101fe565b6102736102f6366004611b6b565b6106c6565b610273610892565b6102b16108a6565b610273610319366004611b6b565b6108dc565b61033161032c366004611aef565b610baf565b6040516001600160a01b0390911681526020016101fe565b61022e610357366004611b50565b60026020526000908152604090205481565b610273610377366004611b50565b610bd9565b6103a561038a366004611b50565b6006602052600090815260409020546001600160501b031681565b6040516001600160501b0390911681526020016101fe565b6000546001600160a01b0316610331565b61021a6103dc366004611b24565b610c56565b6103316103ef366004611ba6565b610c81565b610273610402366004611bf4565b610cb9565b61022e600081565b61042261041d366004611aef565b610e10565b6040516101fe9190611ca5565b61022e7f1d93c87416ca7b54f0fb8323167b72760e8e2ec93d48660953897a150f97a8b481565b610331610464366004611aef565b610f08565b61022e610477366004611b50565b6040517f19457468657265756d205369676e6564204d6573736167653a0a32300000000060208201526bffffffffffffffffffffffff19606083901b16603c820152600090605001604051602081830303815290604052805190602001209050919050565b6101f1610f18565b6102736104f2366004611b24565b610faa565b600c54610331906001600160a01b031681565b610273610518366004611b50565b610fd0565b61033161052b366004611aef565b611049565b6102d661053e366004611b50565b60056020526000908152604090205460ff1681565b600b805461056090611cdb565b80601f016020809104026020016040519081016040528092919081815260200182805461058c90611cdb565b80156105d95780601f106105ae576101008083540402835291602001916105d9565b820191906000526020600020905b8154815290600101906020018083116105bc57829003601f168201915b505050505081565b60006001600160e01b03198216637965db0b60e01b148061061257506301ffc9a760e01b6001600160e01b03198316145b92915050565b6000828152600160208190526040909120015461063481611059565b61063e8383611063565b505050565b6001600160a01b03811633146106b85760405162461bcd60e51b815260206004820152602f60248201527f416363657373436f6e74726f6c3a2063616e206f6e6c792072656e6f756e636560448201526e103937b632b9903337b91039b2b63360891b60648201526084015b60405180910390fd5b6106c282826110ce565b5050565b600060016106d5610477611135565b6040805160008152602081018083529290925260ff871690820152606081018590526080810184905260a0016020604051602081039080840390855afa158015610723573d6000803e3d6000fd5b505060408051601f1901516001600160a01b03811660009081526005602052919091205490925060ff169050806107885760405162461bcd60e51b815260206004820152600960248201526857726f6e67206b657960b81b60448201526064016106af565b610793600182611d2b565b60ff166001901b600660006107a6611135565b6001600160a01b031681526020810191909152604001600090812080546001600160501b039384169381169390931769ffffffffffffffffffff199093169290921790915561082a906006906107fa611135565b6001600160a01b031681526020810191909152604001600020546001600160501b0316610825611135565b611156565b610835600182611d2b565b60ff16610840611135565b6001600160a01b03167fecca5bbef137d0fd675f3d49f8d7c0d30ea00b731a3d0a82f7374ecbd588f4bc60405160405180910390a361087e336111dc565b1561088b5761088b61128c565b5050505050565b61089a6112b7565b6108a46000611311565b565b6000600460006108b4611135565b6001600160a01b031681526020810191909152604001600020546001600160601b0316919050565b6000600460006108ea611135565b6001600160a01b031681526020810191909152604001600090812054600880546001600160601b039092169350908390811061092857610928611d44565b60009182526020822001546001600160a01b03169150610949610477611135565b60408051600081526020810180835283905260ff89169181019190915260608101879052608081018690529091506001600160a01b0383169060019060a0016020604051602081039080840390855afa1580156109aa573d6000803e3d6000fd5b505050602060405103516001600160a01b0316146109fc5760405162461bcd60e51b815260206004820152600f60248201526e2bb937b7339039b7b63aba34b7b71760891b60448201526064016106af565b60046000610a08611135565b6001600160a01b0316815260208101919091526040016000908120546001600160601b03169003610a70576009610a3d611135565b81546001810183556000928352602090922090910180546001600160a01b0319166001600160a01b039092169190911790555b60046000610a7c611135565b6001600160a01b031681526020810191909152604001600090812080546001600160601b031691610aac83611d5a565b91906101000a8154816001600160601b0302191690836001600160601b031602179055505060036000846001600160601b03166001600160601b03168152602001908152602001600020610afe611135565b81546001810183556000928352602090922090910180546001600160a01b0319166001600160a01b03909216919091179055610b4a6001600160601b038416610b45611135565b611361565b826001600160601b0316610b5c611135565b6001600160a01b03167fc3f611c90d559cedd2440cdd34473d14a3acb8d8ca8a45fc99a0a587eacdf5f060405160405180910390a3610b9a336111dc565b15610ba757610ba761128c565b505050505050565b600a8181548110610bbf57600080fd5b6000918252602090912001546001600160a01b0316905081565b7f1d93c87416ca7b54f0fb8323167b72760e8e2ec93d48660953897a150f97a8b4610c0381611059565b50600880546001810182556000919091527ff3f7a9fe364faab93b216da50a3214154f22a0a2b415b23a84c8169e8b636ee30180546001600160a01b0319166001600160a01b0392909216919091179055565b60009182526001602090815260408084206001600160a01b0393909316845291905290205460ff1690565b60036020528160005260406000208181548110610c9d57600080fd5b6000918252602090912001546001600160a01b03169150829050565b7f1d93c87416ca7b54f0fb8323167b72760e8e2ec93d48660953897a150f97a8b4610ce381611059565b600b610cef8382611dc6565b50600c54604080516306ba9f8560e31b815290516001600160a01b03909216916391d148549183916335d4fc28916004808201926020929091908290030181865afa158015610d42573d6000803e3d6000fd5b505050506040513d601f19601f82011682018060405250810190610d669190611e86565b6040516001600160e01b031960e084901b1681526004810191909152306024820152604401602060405180830381865afa158015610da8573d6000803e3d6000fd5b505050506040513d601f19601f82011682018060405250810190610dcc9190611e9f565b6106c25760405162461bcd60e51b815260206004820152601560248201527411d85b59481b9bdd081d995c9a599a5959081e595d605a1b60448201526064016106af565b610e18611a43565b6000610e25602084611ec1565b905060005b602081108015610e445750600954610e428383611ed8565b105b15610f015760006009610e578484611ed8565b81548110610e6757610e67611d44565b6000918252602080832091909101546001600160a01b03811680845260068352604080852054600485529420549094506001600160501b0384169360ff90911660089190911b6affffffffffffffffffff001660609290921b6bffffffffffffffffffffffff1916919091171790869085908110610ee757610ee7611d44565b602002015250819050610ef981611eeb565b915050610e2a565b5050919050565b60088181548110610bbf57600080fd5b6060600b8054610f2790611cdb565b80601f0160208091040260200160405190810160405280929190818152602001828054610f5390611cdb565b8015610fa05780601f10610f7557610100808354040283529160200191610fa0565b820191906000526020600020905b815481529060010190602001808311610f8357829003601f168201915b5050505050905090565b60008281526001602081905260409091200154610fc681611059565b61063e83836110ce565b610fd86112b7565b6001600160a01b03811661103d5760405162461bcd60e51b815260206004820152602660248201527f4f776e61626c653a206e6577206f776e657220697320746865207a65726f206160448201526564647265737360d01b60648201526084016106af565b61104681611311565b50565b60098181548110610bbf57600080fd5b6110468133611416565b61106d8282610c56565b6106c25760008281526001602081815260408084206001600160a01b0386168086529252808420805460ff19169093179092559051339285917f2f8788117e7eff1d82e926ec794901d17c78024a50270940304540a733656f0d9190a45050565b6110d88282610c56565b156106c25760008281526001602090815260408083206001600160a01b0385168085529252808320805460ff1916905551339285917ff6391f5c32d9c69d2a47ea670b442974b53935d1edc7fd64eb21e047a839171b9190a45050565b6000611140336111dc565b61114957503390565b5060131936013560601c90565b60075460019061116a9060ff166002611fe8565b6111749190611ff7565b82036106c257600c546040516340c10f1960e01b81526001600160a01b03838116600483015260056024830152909116906340c10f1990604401600060405180830381600087803b1580156111c857600080fd5b505af1158015610ba7573d6000803e3d6000fd5b60004661014414806111ef575046610118145b15611240576001600160a01b0382167322dcc39b2ac376862183dd35a1664798dafc7da6148061061257506001600160a01b03821673ba4082f4961c8fb76231995c967cd9aa40f321b51492915050565b6001600160a01b03821673b539068872230f20456cf38ec52ef2f91af4ae49148061061257506001600160a01b038216738598806401a63ddf52473f1b3c55bc9e33e2d73b1492915050565b6108a436605b19013560601c36603319013536604719013560601c6001600160a01b0316919061146f565b6000546001600160a01b031633146108a45760405162461bcd60e51b815260206004820181905260248201527f4f776e61626c653a2063616c6c6572206973206e6f7420746865206f776e657260448201526064016106af565b600080546001600160a01b038381166001600160a01b0319831681178455604051919092169283917f8be0079c531659141344cd1fd0a4f28419497f9722a3daafe3b4186f6b6457e09190a35050565b600161136c60085490565b6113769190611ff7565b82036106c2576001600160601b0382166000908152600360208190526040822054919082116113a557816113a8565b60045b600c546040516340c10f1960e01b81526001600160a01b038681166004830152602482018490529293509116906340c10f1990604401600060405180830381600087803b1580156113f857600080fd5b505af115801561140c573d6000803e3d6000fd5b5050505050505050565b6114208282610c56565b6106c25761142d816114be565b6114388360206114d0565b60405160200161144992919061200a565b60408051601f198184030181529082905262461bcd60e51b82526106af91600401611ab2565b8060000361147c57505050565b6001600160a01b03831673eeeeeeeeeeeeeeeeeeeeeeeeeeeeeeeeeeeeeeee146114b45761063e6001600160a01b0384168383611673565b61063e82826116c5565b60606106126001600160a01b03831660145b606060006114df836002611ec1565b6114ea906002611ed8565b67ffffffffffffffff81111561150257611502611bde565b6040519080825280601f01601f19166020018201604052801561152c576020820181803683370190505b509050600360fc1b8160008151811061154757611547611d44565b60200101906001600160f81b031916908160001a905350600f60fb1b8160018151811061157657611576611d44565b60200101906001600160f81b031916908160001a905350600061159a846002611ec1565b6115a5906001611ed8565b90505b600181111561161d576f181899199a1a9b1b9c1cb0b131b232b360811b85600f16601081106115d9576115d9611d44565b1a60f81b8282815181106115ef576115ef611d44565b60200101906001600160f81b031916908160001a90535060049490941c936116168161207f565b90506115a8565b50831561166c5760405162461bcd60e51b815260206004820181905260248201527f537472696e67733a20686578206c656e67746820696e73756666696369656e7460448201526064016106af565b9392505050565b604080516001600160a01b038416602482015260448082018490528251808303909101815260649091019091526020810180516001600160e01b031663a9059cbb60e01b17905261063e9084906117de565b804710156117155760405162461bcd60e51b815260206004820152601d60248201527f416464726573733a20696e73756666696369656e742062616c616e636500000060448201526064016106af565b6000826001600160a01b03168260405160006040518083038185875af1925050503d8060008114611762576040519150601f19603f3d011682016040523d82523d6000602084013e611767565b606091505b505090508061063e5760405162461bcd60e51b815260206004820152603a60248201527f416464726573733a20756e61626c6520746f2073656e642076616c75652c207260448201527f6563697069656e74206d6179206861766520726576657274656400000000000060648201526084016106af565b6000611833826040518060400160405280602081526020017f5361666545524332303a206c6f772d6c6576656c2063616c6c206661696c6564815250856001600160a01b03166118b39092919063ffffffff16565b90508051600014806118545750808060200190518101906118549190611e9f565b61063e5760405162461bcd60e51b815260206004820152602a60248201527f5361666545524332303a204552433230206f7065726174696f6e20646964206e6044820152691bdd081cdd58d8d9595960b21b60648201526084016106af565b60606118c284846000856118ca565b949350505050565b60608247101561192b5760405162461bcd60e51b815260206004820152602660248201527f416464726573733a20696e73756666696369656e742062616c616e636520666f6044820152651c8818d85b1b60d21b60648201526084016106af565b600080866001600160a01b031685876040516119479190612096565b60006040518083038185875af1925050503d8060008114611984576040519150601f19603f3d011682016040523d82523d6000602084013e611989565b606091505b509150915061199a878383876119a5565b979650505050505050565b60608315611a14578251600003611a0d576001600160a01b0385163b611a0d5760405162461bcd60e51b815260206004820152601d60248201527f416464726573733a2063616c6c20746f206e6f6e2d636f6e747261637400000060448201526064016106af565b50816118c2565b6118c28383815115611a295781518083602001fd5b8060405162461bcd60e51b81526004016106af9190611ab2565b6040518061040001604052806020906020820280368337509192915050565b60005b83811015611a7d578181015183820152602001611a65565b50506000910152565b60008151808452611a9e816020860160208601611a62565b601f01601f19169290920160200192915050565b60208152600061166c6020830184611a86565b600060208284031215611ad757600080fd5b81356001600160e01b03198116811461166c57600080fd5b600060208284031215611b0157600080fd5b5035919050565b80356001600160a01b0381168114611b1f57600080fd5b919050565b60008060408385031215611b3757600080fd5b82359150611b4760208401611b08565b90509250929050565b600060208284031215611b6257600080fd5b61166c82611b08565b600080600060608486031215611b8057600080fd5b833560ff81168114611b9157600080fd5b95602085013595506040909401359392505050565b60008060408385031215611bb957600080fd5b82356001600160601b0381168114611bd057600080fd5b946020939093013593505050565b634e487b7160e01b600052604160045260246000fd5b600060208284031215611c0657600080fd5b813567ffffffffffffffff80821115611c1e57600080fd5b818401915084601f830112611c3257600080fd5b813581811115611c4457611c44611bde565b604051601f8201601f19908116603f01168101908382118183101715611c6c57611c6c611bde565b81604052828152876020848701011115611c8557600080fd5b826020860160208301376000928101602001929092525095945050505050565b6104008101818360005b6020808210611cbe5750611cd2565b825184529283019290910190600101611caf565b50505092915050565b600181811c90821680611cef57607f821691505b602082108103611d0f57634e487b7160e01b600052602260045260246000fd5b50919050565b634e487b7160e01b600052601160045260246000fd5b60ff828116828216039081111561061257610612611d15565b634e487b7160e01b600052603260045260246000fd5b60006001600160601b03808316818103611d7657611d76611d15565b6001019392505050565b601f82111561063e57600081815260208120601f850160051c81016020861015611da75750805b601f850160051c820191505b81811015610ba757828155600101611db3565b815167ffffffffffffffff811115611de057611de0611bde565b611df481611dee8454611cdb565b84611d80565b602080601f831160018114611e295760008415611e115750858301515b600019600386901b1c1916600185901b178555610ba7565b600085815260208120601f198616915b82811015611e5857888601518255948401946001909101908401611e39565b5085821015611e765787850151600019600388901b60f8161c191681555b5050505050600190811b01905550565b600060208284031215611e9857600080fd5b5051919050565b600060208284031215611eb157600080fd5b8151801515811461166c57600080fd5b808202811582820484141761061257610612611d15565b8082018082111561061257610612611d15565b600060018201611efd57611efd611d15565b5060010190565b600181815b80851115611f3f578160001904821115611f2557611f25611d15565b80851615611f3257918102915b93841c9390800290611f09565b509250929050565b600082611f5657506001610612565b81611f6357506000610612565b8160018114611f795760028114611f8357611f9f565b6001915050610612565b60ff841115611f9457611f94611d15565b50506001821b610612565b5060208310610133831016604e8410600b8410161715611fc2575081810a610612565b611fcc8383611f04565b8060001904821115611fe057611fe0611d15565b029392505050565b600061166c60ff841683611f47565b8181038181111561061257610612611d15565b7f416363657373436f6e74726f6c3a206163636f756e7420000000000000000000815260008351612042816017850160208801611a62565b7001034b99036b4b9b9b4b733903937b6329607d1b6017918401918201528351612073816028840160208801611a62565b01602801949350505050565b60008161208e5761208e611d15565b506000190190565b600082516120a8818460208701611a62565b919091019291505056fea2646970667358221220257f72ded98db36a2bb7e07fade0972f92f54927ff0c1c9cfc7d18d6151f5e5664736f6c63430008150033",
  "linkReferences": {},
  "deployedLinkReferences": {}
}