{
  "_format": "hh-sol-artifact-1",
  "contractName": "TreasureHuntCreator",
  "sourceName": "contracts/TreasureHuntCreator.sol",
  "abi": [
    {
      "inputs": [
        {
          "internalType": "address[]",
          "name": "solutions_",
          "type": "address[]"
        },
        {
          "internalType": "address[]",
          "name": "keys",
          "type": "address[]"
        },
        {
          "internalType": "address",
          "name": "prize_",
          "type": "address"
        }
      ],
      "stateMutability": "nonpayable",
      "type": "constructor"
    },
    {
      "anonymous": false,
      "inputs": [
        {
          "indexed": true,
          "internalType": "address",
          "name": "player",
          "type": "address"
        },
        {
          "indexed": true,
          "internalType": "uint256",
          "name": "completedChapter",
          "type": "uint256"
        }
      ],
      "name": "ChapterCompleted",
      "type": "event"
    },
    {
      "anonymous": false,
      "inputs": [
        {
          "indexed": false,
          "internalType": "address",
          "name": "msgSender",
          "type": "address"
        }
      ],
      "name": "IncrementCounter",
      "type": "event"
    },
    {
      "anonymous": false,
      "inputs": [
        {
          "indexed": true,
          "internalType": "address",
          "name": "player",
          "type": "address"
        },
        {
          "indexed": true,
          "internalType": "uint256",
          "name": "completedKey",
          "type": "uint256"
        }
      ],
      "name": "KeyCompleted",
      "type": "event"
    },
    {
      "anonymous": false,
      "inputs": [
        {
          "indexed": true,
          "internalType": "address",
          "name": "previousOwner",
          "type": "address"
        },
        {
          "indexed": true,
          "internalType": "address",
          "name": "newOwner",
          "type": "address"
        }
      ],
      "name": "OwnershipTransferred",
      "type": "event"
    },
    {
      "anonymous": false,
      "inputs": [
        {
          "indexed": false,
          "internalType": "address",
          "name": "from",
          "type": "address"
        },
        {
          "indexed": false,
          "internalType": "uint256",
          "name": "badgeId",
          "type": "uint256"
        }
      ],
      "name": "PrizeMinted",
      "type": "event"
    },
    {
      "anonymous": false,
      "inputs": [
        {
          "indexed": true,
          "internalType": "bytes32",
          "name": "role",
          "type": "bytes32"
        },
        {
          "indexed": true,
          "internalType": "bytes32",
          "name": "previousAdminRole",
          "type": "bytes32"
        },
        {
          "indexed": true,
          "internalType": "bytes32",
          "name": "newAdminRole",
          "type": "bytes32"
        }
      ],
      "name": "RoleAdminChanged",
      "type": "event"
    },
    {
      "anonymous": false,
      "inputs": [
        {
          "indexed": true,
          "internalType": "bytes32",
          "name": "role",
          "type": "bytes32"
        },
        {
          "indexed": true,
          "internalType": "address",
          "name": "account",
          "type": "address"
        },
        {
          "indexed": true,
          "internalType": "address",
          "name": "sender",
          "type": "address"
        }
      ],
      "name": "RoleGranted",
      "type": "event"
    },
    {
      "anonymous": false,
      "inputs": [
        {
          "indexed": true,
          "internalType": "bytes32",
          "name": "role",
          "type": "bytes32"
        },
        {
          "indexed": true,
          "internalType": "address",
          "name": "account",
          "type": "address"
        },
        {
          "indexed": true,
          "internalType": "address",
          "name": "sender",
          "type": "address"
        }
      ],
      "name": "RoleRevoked",
      "type": "event"
    },
    {
      "stateMutability": "payable",
      "type": "fallback"
    },
    {
      "inputs": [],
      "name": "DEFAULT_ADMIN_ROLE",
      "outputs": [
        {
          "internalType": "bytes32",
          "name": "",
          "type": "bytes32"
        }
      ],
      "stateMutability": "view",
      "type": "function"
    },
    {
      "inputs": [],
      "name": "GAME_MASTER_ROLE",
      "outputs": [
        {
          "internalType": "bytes32",
          "name": "",
          "type": "bytes32"
        }
      ],
      "stateMutability": "view",
      "type": "function"
    },
    {
      "inputs": [],
      "name": "PAGE_SIZE",
      "outputs": [
        {
          "internalType": "uint256",
          "name": "",
          "type": "uint256"
        }
      ],
      "stateMutability": "view",
      "type": "function"
    },
    {
      "inputs": [
        {
          "internalType": "address",
          "name": "solution",
          "type": "address"
        }
      ],
      "name": "addSolution",
      "outputs": [],
      "stateMutability": "nonpayable",
      "type": "function"
    },
    {
      "inputs": [
        {
          "internalType": "uint96",
          "name": "",
          "type": "uint96"
        },
        {
          "internalType": "uint256",
          "name": "",
          "type": "uint256"
        }
      ],
      "name": "chapterToPlayers",
      "outputs": [
        {
          "internalType": "address",
          "name": "",
          "type": "address"
        }
      ],
      "stateMutability": "view",
      "type": "function"
    },
    {
      "inputs": [
        {
          "internalType": "address",
          "name": "",
          "type": "address"
        }
      ],
      "name": "contextCounter",
      "outputs": [
        {
          "internalType": "uint256",
          "name": "",
          "type": "uint256"
        }
      ],
      "stateMutability": "view",
      "type": "function"
    },
    {
      "inputs": [],
      "name": "currentChapter",
      "outputs": [
        {
          "internalType": "uint16",
          "name": "",
          "type": "uint16"
        }
      ],
      "stateMutability": "view",
      "type": "function"
    },
    {
      "inputs": [
        {
          "internalType": "uint256",
          "name": "",
          "type": "uint256"
        }
      ],
      "name": "gameMasters",
      "outputs": [
        {
          "internalType": "address",
          "name": "",
          "type": "address"
        }
      ],
      "stateMutability": "view",
      "type": "function"
    },
    {
      "inputs": [
        {
          "internalType": "address",
          "name": "a",
          "type": "address"
        }
      ],
      "name": "getAddressHash",
      "outputs": [
        {
          "internalType": "bytes32",
          "name": "",
          "type": "bytes32"
        }
      ],
      "stateMutability": "pure",
      "type": "function"
    },
    {
      "inputs": [
        {
          "internalType": "uint256",
          "name": "page",
          "type": "uint256"
        }
      ],
      "name": "getLeaderboard",
      "outputs": [
        {
          "components": [
            {
              "internalType": "address",
              "name": "account",
              "type": "address"
            },
            {
              "internalType": "uint80",
              "name": "keys",
              "type": "uint80"
            },
            {
              "internalType": "uint16",
              "name": "chapter",
              "type": "uint16"
            },
            {
              "internalType": "uint64",
              "name": "timestamp",
              "type": "uint64"
            }
          ],
          "internalType": "struct TreasureHuntCreator.LeaderboardEntry[1024]",
          "name": "leaderboard",
          "type": "tuple[1024]"
        }
      ],
      "stateMutability": "view",
      "type": "function"
    },
    {
      "inputs": [],
      "name": "getQuestsRootCID",
      "outputs": [
        {
          "internalType": "bytes",
          "name": "",
          "type": "bytes"
        }
      ],
      "stateMutability": "view",
      "type": "function"
    },
    {
      "inputs": [
        {
          "internalType": "bytes32",
          "name": "role",
          "type": "bytes32"
        }
      ],
      "name": "getRoleAdmin",
      "outputs": [
        {
          "internalType": "bytes32",
          "name": "",
          "type": "bytes32"
        }
      ],
      "stateMutability": "view",
      "type": "function"
    },
    {
      "inputs": [
        {
          "internalType": "bytes32",
          "name": "role",
          "type": "bytes32"
        },
        {
          "internalType": "address",
          "name": "account",
          "type": "address"
        }
      ],
      "name": "grantRole",
      "outputs": [],
      "stateMutability": "nonpayable",
      "type": "function"
    },
    {
      "inputs": [
        {
          "internalType": "bytes32",
          "name": "role",
          "type": "bytes32"
        },
        {
          "internalType": "address",
          "name": "account",
          "type": "address"
        }
      ],
      "name": "hasRole",
      "outputs": [
        {
          "internalType": "bool",
          "name": "",
          "type": "bool"
        }
      ],
      "stateMutability": "view",
      "type": "function"
    },
    {
      "inputs": [
        {
          "internalType": "address",
          "name": "",
          "type": "address"
        }
      ],
      "name": "keyToPos",
      "outputs": [
        {
          "internalType": "uint8",
          "name": "",
          "type": "uint8"
        }
      ],
      "stateMutability": "view",
      "type": "function"
    },
    {
      "inputs": [],
      "name": "owner",
      "outputs": [
        {
          "internalType": "address",
          "name": "",
          "type": "address"
        }
      ],
      "stateMutability": "view",
      "type": "function"
    },
    {
      "inputs": [
        {
          "internalType": "address",
          "name": "",
          "type": "address"
        }
      ],
      "name": "playerToCurrentChapter",
      "outputs": [
        {
          "internalType": "uint16",
          "name": "",
          "type": "uint16"
        }
      ],
      "stateMutability": "view",
      "type": "function"
    },
    {
      "inputs": [
        {
          "internalType": "address",
          "name": "",
          "type": "address"
        }
      ],
      "name": "playerToKeys",
      "outputs": [
        {
          "internalType": "uint80",
          "name": "",
          "type": "uint80"
        }
      ],
      "stateMutability": "view",
      "type": "function"
    },
    {
      "inputs": [
        {
          "internalType": "address",
          "name": "",
          "type": "address"
        }
      ],
      "name": "playerToTimestamp",
      "outputs": [
        {
          "internalType": "uint64",
          "name": "",
          "type": "uint64"
        }
      ],
      "stateMutability": "view",
      "type": "function"
    },
    {
      "inputs": [
        {
          "internalType": "uint256",
          "name": "",
          "type": "uint256"
        }
      ],
      "name": "players",
      "outputs": [
        {
          "internalType": "address",
          "name": "",
          "type": "address"
        }
      ],
      "stateMutability": "view",
      "type": "function"
    },
    {
      "inputs": [],
      "name": "prize",
      "outputs": [
        {
          "internalType": "contract ITreasure",
          "name": "",
          "type": "address"
        }
      ],
      "stateMutability": "view",
      "type": "function"
    },
    {
      "inputs": [],
      "name": "questsRootCid",
      "outputs": [
        {
          "internalType": "bytes",
          "name": "",
          "type": "bytes"
        }
      ],
      "stateMutability": "view",
      "type": "function"
    },
    {
      "inputs": [],
      "name": "renounceOwnership",
      "outputs": [],
      "stateMutability": "nonpayable",
      "type": "function"
    },
    {
      "inputs": [
        {
          "internalType": "bytes32",
          "name": "role",
          "type": "bytes32"
        },
        {
          "internalType": "address",
          "name": "account",
          "type": "address"
        }
      ],
      "name": "renounceRole",
      "outputs": [],
      "stateMutability": "nonpayable",
      "type": "function"
    },
    {
      "inputs": [
        {
          "internalType": "bytes32",
          "name": "role",
          "type": "bytes32"
        },
        {
          "internalType": "address",
          "name": "account",
          "type": "address"
        }
      ],
      "name": "revokeRole",
      "outputs": [],
      "stateMutability": "nonpayable",
      "type": "function"
    },
    {
      "inputs": [
        {
          "internalType": "bytes",
          "name": "questsRootCid_",
          "type": "bytes"
        }
      ],
      "name": "setup",
      "outputs": [],
      "stateMutability": "nonpayable",
      "type": "function"
    },
    {
      "inputs": [
        {
          "internalType": "uint256",
          "name": "",
          "type": "uint256"
        }
      ],
      "name": "solutions",
      "outputs": [
        {
          "internalType": "address",
          "name": "",
          "type": "address"
        }
      ],
      "stateMutability": "view",
      "type": "function"
    },
    {
      "inputs": [
        {
          "internalType": "uint8",
          "name": "v",
          "type": "uint8"
        },
        {
          "internalType": "bytes32",
          "name": "r",
          "type": "bytes32"
        },
        {
          "internalType": "bytes32",
          "name": "s",
          "type": "bytes32"
        }
      ],
      "name": "submit",
      "outputs": [],
      "stateMutability": "nonpayable",
      "type": "function"
    },
    {
      "inputs": [
        {
          "internalType": "uint8",
          "name": "v",
          "type": "uint8"
        },
        {
          "internalType": "bytes32",
          "name": "r",
          "type": "bytes32"
        },
        {
          "internalType": "bytes32",
          "name": "s",
          "type": "bytes32"
        }
      ],
      "name": "submitKey",
      "outputs": [],
      "stateMutability": "nonpayable",
      "type": "function"
    },
    {
      "inputs": [
        {
          "internalType": "bytes4",
          "name": "interfaceId",
          "type": "bytes4"
        }
      ],
      "name": "supportsInterface",
      "outputs": [
        {
          "internalType": "bool",
          "name": "",
          "type": "bool"
        }
      ],
      "stateMutability": "view",
      "type": "function"
    },
    {
      "inputs": [],
      "name": "totalChapters",
      "outputs": [
        {
          "internalType": "uint256",
          "name": "",
          "type": "uint256"
        }
      ],
      "stateMutability": "view",
      "type": "function"
    },
    {
      "inputs": [],
      "name": "totalKeys",
      "outputs": [
        {
          "internalType": "uint8",
          "name": "",
          "type": "uint8"
        }
      ],
      "stateMutability": "view",
      "type": "function"
    },
    {
      "inputs": [
        {
          "internalType": "address",
          "name": "newOwner",
          "type": "address"
        }
      ],
      "name": "transferOwnership",
      "outputs": [],
      "stateMutability": "nonpayable",
      "type": "function"
    },
    {
      "inputs": [
        {
          "internalType": "address payable",
          "name": "receiver",
          "type": "address"
        }
      ],
      "name": "withdraw",
      "outputs": [],
      "stateMutability": "nonpayable",
      "type": "function"
    },
    {
      "inputs": [
        {
          "internalType": "contract IERC20",
          "name": "token",
          "type": "address"
        },
        {
          "internalType": "address",
          "name": "receiver",
          "type": "address"
        }
      ],
      "name": "withdrawERC20",
      "outputs": [],
      "stateMutability": "nonpayable",
      "type": "function"
    },
    {
      "stateMutability": "payable",
      "type": "receive"
    }
  ],
  "bytecode": "0x60806040523480156200001157600080fd5b5060405162002ba838038062002ba8833981016040819052620000349162000476565b6200003f3362000163565b82516200005490600990602086019062000315565b50600d80546001600160a01b0319166001600160a01b03831617905560005b82518160ff161015620000ff576200008d81600162000508565b60066000858460ff1681518110620000a957620000a962000524565b60200260200101516001600160a01b03166001600160a01b0316815260200190815260200160002060006101000a81548160ff021916908360ff1602179055508080620000f6906200053a565b91505062000073565b5081516008805460ff191660ff9092169190911790556200012b600062000125620001b3565b620001d7565b6200015a7f1d93c87416ca7b54f0fb8323167b72760e8e2ec93d48660953897a150f97a8b462000125620001b3565b5050506200055c565b600080546001600160a01b038381166001600160a01b0319831681178455604051919092169283917f8be0079c531659141344cd1fd0a4f28419497f9722a3daafe3b4186f6b6457e09190a35050565b6000620001c03362000260565b620001ca57503390565b5060131936013560601c90565b60008281526001602090815260408083206001600160a01b038516845290915290205460ff166200025c5760008281526001602081815260408084206001600160a01b0386168086529252808420805460ff19169093179092559051339285917f2f8788117e7eff1d82e926ec794901d17c78024a50270940304540a733656f0d9190a45b5050565b600046610144148062000274575046610118145b15620002c8576001600160a01b0382167322dcc39b2ac376862183dd35a1664798dafc7da61480620002c257506001600160a01b03821673ba4082f4961c8fb76231995c967cd9aa40f321b5145b92915050565b6001600160a01b03821673b539068872230f20456cf38ec52ef2f91af4ae491480620002c257506001600160a01b038216738598806401a63ddf52473f1b3c55bc9e33e2d73b1492915050565b8280548282559060005260206000209081019282156200036d579160200282015b828111156200036d57825182546001600160a01b0319166001600160a01b0390911617825560209092019160019091019062000336565b506200037b9291506200037f565b5090565b5b808211156200037b576000815560010162000380565b634e487b7160e01b600052604160045260246000fd5b80516001600160a01b0381168114620003c457600080fd5b919050565b600082601f830112620003db57600080fd5b815160206001600160401b0380831115620003fa57620003fa62000396565b8260051b604051601f19603f8301168101818110848211171562000422576200042262000396565b6040529384528581018301938381019250878511156200044157600080fd5b83870191505b848210156200046b576200045b82620003ac565b8352918301919083019062000447565b979650505050505050565b6000806000606084860312156200048c57600080fd5b83516001600160401b0380821115620004a457600080fd5b620004b287838801620003c9565b94506020860151915080821115620004c957600080fd5b50620004d886828701620003c9565b925050620004e960408501620003ac565b90509250925092565b634e487b7160e01b600052601160045260246000fd5b60ff8181168382160190811115620002c257620002c2620004f2565b634e487b7160e01b600052603260045260246000fd5b600060ff821660ff8103620005535762000553620004f2565b60010192915050565b61263c806200056c6000396000f3fe6080604052600436106101ef5760003560e01c8063832e16951161010c578063ad1def1e1161009a578063d547741f1161006c578063d547741f146106df578063e3ac5d26146106ff578063f2fde38b1461071f578063f71d96cb1461073f578063fbc20d841461075f57005b8063ad1def1e146105f6578063b71698c71461062a578063bbfff4611461064a578063c3d8bfed146106ca57005b80639456fbcc116100de5780639456fbcc146105545780639bd0dbb8146105745780639ded06df14610594578063a217fddf146105b4578063a34b46fe146105c957005b8063832e1695146104a8578063888fa4a2146104c85780638da5cb5b1461051657806391d148541461053457005b8063488bdabc11610189578063715018a61161015b578063715018a6146103f957806376f0a0e81461040e5780638006a17414610423578063817584b91461044357806382b761681461047b57005b8063488bdabc1461033d57806351cff8d914610369578063626bb7fb146103895780637099a623146103a957005b80632f2ff15d116101c25780632f2ff15d146102a357806331b28664146102c357806336568abe146102d9578063385e18dd146102f957005b8062d25c23146101f857806301ffc9a7146102235780630db4e5f114610253578063248a9ca31461027257005b366101f657005b005b34801561020457600080fd5b5061020d61078f565b60405161021a9190611f9d565b60405180910390f35b34801561022f57600080fd5b5061024361023e366004611fb0565b61081d565b604051901515815260200161021a565b34801561025f57600080fd5b506009545b60405190815260200161021a565b34801561027e57600080fd5b5061026461028d366004611fda565b6000908152600160208190526040909120015490565b3480156102af57600080fd5b506101f66102be366004612008565b610854565b3480156102cf57600080fd5b5061026461040081565b3480156102e557600080fd5b506101f66102f4366004612008565b61087f565b34801561030557600080fd5b5061032a610314366004612038565b60046020526000908152604090205461ffff1681565b60405161ffff909116815260200161021a565b34801561034957600080fd5b506008546103579060ff1681565b60405160ff909116815260200161021a565b34801561037557600080fd5b506101f6610384366004612038565b610902565b34801561039557600080fd5b506101f66103a4366004612055565b6109a7565b3480156103b557600080fd5b506103e06103c4366004612038565b60056020526000908152604090205467ffffffffffffffff1681565b60405167ffffffffffffffff909116815260200161021a565b34801561040557600080fd5b506101f6610b73565b34801561041a57600080fd5b5061032a610b87565b34801561042f57600080fd5b506101f661043e366004612055565b610bb8565b34801561044f57600080fd5b5061046361045e366004611fda565b610eac565b6040516001600160a01b03909116815260200161021a565b34801561048757600080fd5b50610264610496366004612038565b60026020526000908152604090205481565b3480156104b457600080fd5b506101f66104c3366004612038565b610ed6565b3480156104d457600080fd5b506104fe6104e3366004612038565b6007602052600090815260409020546001600160501b031681565b6040516001600160501b03909116815260200161021a565b34801561052257600080fd5b506000546001600160a01b0316610463565b34801561054057600080fd5b5061024361054f366004612008565b610f53565b34801561056057600080fd5b506101f661056f366004612090565b610f7e565b34801561058057600080fd5b5061046361058f3660046120be565b6110b4565b3480156105a057600080fd5b506101f66105af36600461210c565b6110ec565b3480156105c057600080fd5b50610264600081565b3480156105d557600080fd5b506105e96105e4366004611fda565b611243565b60405161021a91906121bd565b34801561060257600080fd5b506102647f1d93c87416ca7b54f0fb8323167b72760e8e2ec93d48660953897a150f97a8b481565b34801561063657600080fd5b50610463610645366004611fda565b61133c565b34801561065657600080fd5b50610264610665366004612038565b6040517f19457468657265756d205369676e6564204d6573736167653a0a32300000000060208201526bffffffffffffffffffffffff19606083901b16603c820152600090605001604051602081830303815290604052805190602001209050919050565b3480156106d657600080fd5b5061020d61134c565b3480156106eb57600080fd5b506101f66106fa366004612008565b6113de565b34801561070b57600080fd5b50600d54610463906001600160a01b031681565b34801561072b57600080fd5b506101f661073a366004612038565b611404565b34801561074b57600080fd5b5061046361075a366004611fda565b61147d565b34801561076b57600080fd5b5061035761077a366004612038565b60066020526000908152604090205460ff1681565b600c805461079c90612234565b80601f01602080910402602001604051908101604052809291908181526020018280546107c890612234565b80156108155780601f106107ea57610100808354040283529160200191610815565b820191906000526020600020905b8154815290600101906020018083116107f857829003601f168201915b505050505081565b60006001600160e01b03198216637965db0b60e01b148061084e57506301ffc9a760e01b6001600160e01b03198316145b92915050565b600082815260016020819052604090912001546108708161148d565b61087a8383611497565b505050565b6001600160a01b03811633146108f45760405162461bcd60e51b815260206004820152602f60248201527f416363657373436f6e74726f6c3a2063616e206f6e6c792072656e6f756e636560448201526e103937b632b9903337b91039b2b63360891b60648201526084015b60405180910390fd5b6108fe8282611502565b5050565b600061090d8161148d565b6000826001600160a01b03164760405160006040518083038185875af1925050503d806000811461095a576040519150601f19603f3d011682016040523d82523d6000602084013e61095f565b606091505b505090508061087a5760405162461bcd60e51b81526020600482015260146024820152732330b4b632b2103a379039b2b7321022ba3432b960611b60448201526064016108eb565b600060016109b6610665611569565b6040805160008152602081018083529290925260ff871690820152606081018590526080810184905260a0016020604051602081039080840390855afa158015610a04573d6000803e3d6000fd5b505060408051601f1901516001600160a01b03811660009081526006602052919091205490925060ff16905080610a695760405162461bcd60e51b815260206004820152600960248201526857726f6e67206b657960b81b60448201526064016108eb565b610a74600182612284565b60ff166001901b60076000610a87611569565b6001600160a01b031681526020810191909152604001600090812080546001600160501b039384169381169390931769ffffffffffffffffffff1990931692909217909155610b0b90600790610adb611569565b6001600160a01b031681526020810191909152604001600020546001600160501b0316610b06611569565b61158a565b610b16600182612284565b60ff16610b21611569565b6001600160a01b03167fecca5bbef137d0fd675f3d49f8d7c0d30ea00b731a3d0a82f7374ecbd588f4bc60405160405180910390a3610b5f3361165b565b15610b6c57610b6c61170b565b5050505050565b610b7b611736565b610b856000611790565b565b600060046000610b95611569565b6001600160a01b0316815260208101919091526040016000205461ffff16919050565b600060046000610bc6611569565b6001600160a01b0316815260208101919091526040016000908120546009805461ffff90921693509083908110610bff57610bff61229d565b60009182526020822001546001600160a01b03169150610c20610665611569565b60408051600081526020810180835283905260ff89169181019190915260608101879052608081018690529091506001600160a01b0383169060019060a0016020604051602081039080840390855afa158015610c81573d6000803e3d6000fd5b505050602060405103516001600160a01b031614610cd35760405162461bcd60e51b815260206004820152600f60248201526e2bb937b7339039b7b63aba34b7b71760891b60448201526064016108eb565b60046000610cdf611569565b6001600160a01b03168152602081019190915260400160009081205461ffff169003610d4257600a610d0f611569565b81546001810183556000928352602090922090910180546001600160a01b0319166001600160a01b039092169190911790555b60046000610d4e611569565b6001600160a01b0316815260208101919091526040016000908120805461ffff1691610d79836122b3565b91906101000a81548161ffff021916908361ffff160217905550504260056000610da1611569565b6001600160a01b0316815260208082019290925260409081016000908120805467ffffffffffffffff191667ffffffffffffffff95909516949094179093556001600160601b038616835260039091529020610dfb611569565b81546001810183556000928352602090922090910180546001600160a01b0319166001600160a01b03909216919091179055610e476001600160601b038416610e42611569565b6117e0565b826001600160601b0316610e59611569565b6001600160a01b03167fc3f611c90d559cedd2440cdd34473d14a3acb8d8ca8a45fc99a0a587eacdf5f060405160405180910390a3610e973361165b565b15610ea457610ea461170b565b505050505050565b600b8181548110610ebc57600080fd5b6000918252602090912001546001600160a01b0316905081565b7f1d93c87416ca7b54f0fb8323167b72760e8e2ec93d48660953897a150f97a8b4610f008161148d565b50600980546001810182556000919091527f6e1540171b6c0c960b71a7020d9f60077f6af931a8bbf590da0223dacf75c7af0180546001600160a01b0319166001600160a01b0392909216919091179055565b60009182526001602090815260408084206001600160a01b0393909316845291905290205460ff1690565b6000610f898161148d565b6040516370a0823160e01b81523060048201526000906001600160a01b0385169063a9059cbb90859083906370a0823190602401602060405180830381865afa158015610fda573d6000803e3d6000fd5b505050506040513d601f19601f82011682018060405250810190610ffe91906122d4565b6040516001600160e01b031960e085901b1681526001600160a01b03909216600483015260248201526044016020604051808303816000875af1158015611049573d6000803e3d6000fd5b505050506040513d601f19601f8201168201806040525081019061106d91906122ed565b9050806110ae5760405162461bcd60e51b815260206004820152600f60248201526e151c985b9cd9995c8819985a5b1959608a1b60448201526064016108eb565b50505050565b600360205281600052604060002081815481106110d057600080fd5b6000918252602090912001546001600160a01b03169150829050565b7f1d93c87416ca7b54f0fb8323167b72760e8e2ec93d48660953897a150f97a8b46111168161148d565b600c6111228382612355565b50600d54604080516306ba9f8560e31b815290516001600160a01b03909216916391d148549183916335d4fc28916004808201926020929091908290030181865afa158015611175573d6000803e3d6000fd5b505050506040513d601f19601f8201168201806040525081019061119991906122d4565b6040516001600160e01b031960e084901b1681526004810191909152306024820152604401602060405180830381865afa1580156111db573d6000803e3d6000fd5b505050506040513d601f19601f820116820180604052508101906111ff91906122ed565b6108fe5760405162461bcd60e51b815260206004820152601560248201527411d85b59481b9bdd081d995c9a599a5959081e595d605a1b60448201526064016108eb565b61124b611f05565b600061125961040084612415565b905060005b610400811080156112795750600a54611277838361242c565b105b15611335576000600a61128c848461242c565b8154811061129c5761129c61229d565b6000918252602080832090910154604080516080810182526001600160a01b0390921680835280855260078452818520546001600160501b031683850152808552600484528185205461ffff168383015280855260059093529092205467ffffffffffffffff16606083015291508483610400811061131d5761131d61229d565b6020020152508061132d8161243f565b91505061125e565b5050919050565b60098181548110610ebc57600080fd5b6060600c805461135b90612234565b80601f016020809104026020016040519081016040528092919081815260200182805461138790612234565b80156113d45780601f106113a9576101008083540402835291602001916113d4565b820191906000526020600020905b8154815290600101906020018083116113b757829003601f168201915b5050505050905090565b600082815260016020819052604090912001546113fa8161148d565b61087a8383611502565b61140c611736565b6001600160a01b0381166114715760405162461bcd60e51b815260206004820152602660248201527f4f776e61626c653a206e6577206f776e657220697320746865207a65726f206160448201526564647265737360d01b60648201526084016108eb565b61147a81611790565b50565b600a8181548110610ebc57600080fd5b61147a81336118d8565b6114a18282610f53565b6108fe5760008281526001602081815260408084206001600160a01b0386168086529252808420805460ff19169093179092559051339285917f2f8788117e7eff1d82e926ec794901d17c78024a50270940304540a733656f0d9190a45050565b61150c8282610f53565b156108fe5760008281526001602090815260408083206001600160a01b0385168085529252808320805460ff1916905551339285917ff6391f5c32d9c69d2a47ea670b442974b53935d1edc7fd64eb21e047a839171b9190a45050565b60006115743361165b565b61157d57503390565b5060131936013560601c90565b60085460019061159e9060ff16600261253c565b6115a8919061254b565b82036108fe57600d546040516340c10f1960e01b81526001600160a01b03838116600483015260056024830152909116906340c10f1990604401600060405180830381600087803b1580156115fc57600080fd5b505af1158015611610573d6000803e3d6000fd5b5050604080516001600160a01b0385168152600560208201527f3b782080656380c62378fe492892b8dcb9c50affce49759e169b8c7e5ef270e7935001905060405180910390a15050565b600046610144148061166e575046610118145b156116bf576001600160a01b0382167322dcc39b2ac376862183dd35a1664798dafc7da6148061084e57506001600160a01b03821673ba4082f4961c8fb76231995c967cd9aa40f321b51492915050565b6001600160a01b03821673b539068872230f20456cf38ec52ef2f91af4ae49148061084e57506001600160a01b038216738598806401a63ddf52473f1b3c55bc9e33e2d73b1492915050565b610b8536605b19013560601c36603319013536604719013560601c6001600160a01b03169190611931565b6000546001600160a01b03163314610b855760405162461bcd60e51b815260206004820181905260248201527f4f776e61626c653a2063616c6c6572206973206e6f7420746865206f776e657260448201526064016108eb565b600080546001600160a01b038381166001600160a01b0319831681178455604051919092169283917f8be0079c531659141344cd1fd0a4f28419497f9722a3daafe3b4186f6b6457e09190a35050565b60016117eb60095490565b6117f5919061254b565b82036108fe576001600160601b0382166000908152600360208190526040822054919082116118245781611827565b60045b600d546040516340c10f1960e01b81526001600160a01b038681166004830152602482018490529293509116906340c10f1990604401600060405180830381600087803b15801561187757600080fd5b505af115801561188b573d6000803e3d6000fd5b5050604080516001600160a01b0387168152602081018590527f3b782080656380c62378fe492892b8dcb9c50affce49759e169b8c7e5ef270e7935001905060405180910390a150505050565b6118e28282610f53565b6108fe576118ef81611980565b6118fa836020611992565b60405160200161190b92919061255e565b60408051601f198184030181529082905262461bcd60e51b82526108eb91600401611f9d565b8060000361193e57505050565b6001600160a01b03831673eeeeeeeeeeeeeeeeeeeeeeeeeeeeeeeeeeeeeeee146119765761087a6001600160a01b0384168383611b35565b61087a8282611b87565b606061084e6001600160a01b03831660145b606060006119a1836002612415565b6119ac90600261242c565b67ffffffffffffffff8111156119c4576119c46120f6565b6040519080825280601f01601f1916602001820160405280156119ee576020820181803683370190505b509050600360fc1b81600081518110611a0957611a0961229d565b60200101906001600160f81b031916908160001a905350600f60fb1b81600181518110611a3857611a3861229d565b60200101906001600160f81b031916908160001a9053506000611a5c846002612415565b611a6790600161242c565b90505b6001811115611adf576f181899199a1a9b1b9c1cb0b131b232b360811b85600f1660108110611a9b57611a9b61229d565b1a60f81b828281518110611ab157611ab161229d565b60200101906001600160f81b031916908160001a90535060049490941c93611ad8816125d3565b9050611a6a565b508315611b2e5760405162461bcd60e51b815260206004820181905260248201527f537472696e67733a20686578206c656e67746820696e73756666696369656e7460448201526064016108eb565b9392505050565b604080516001600160a01b038416602482015260448082018490528251808303909101815260649091019091526020810180516001600160e01b031663a9059cbb60e01b17905261087a908490611ca0565b80471015611bd75760405162461bcd60e51b815260206004820152601d60248201527f416464726573733a20696e73756666696369656e742062616c616e636500000060448201526064016108eb565b6000826001600160a01b03168260405160006040518083038185875af1925050503d8060008114611c24576040519150601f19603f3d011682016040523d82523d6000602084013e611c29565b606091505b505090508061087a5760405162461bcd60e51b815260206004820152603a60248201527f416464726573733a20756e61626c6520746f2073656e642076616c75652c207260448201527f6563697069656e74206d6179206861766520726576657274656400000000000060648201526084016108eb565b6000611cf5826040518060400160405280602081526020017f5361666545524332303a206c6f772d6c6576656c2063616c6c206661696c6564815250856001600160a01b0316611d759092919063ffffffff16565b9050805160001480611d16575080806020019051810190611d1691906122ed565b61087a5760405162461bcd60e51b815260206004820152602a60248201527f5361666545524332303a204552433230206f7065726174696f6e20646964206e6044820152691bdd081cdd58d8d9595960b21b60648201526084016108eb565b6060611d848484600085611d8c565b949350505050565b606082471015611ded5760405162461bcd60e51b815260206004820152602660248201527f416464726573733a20696e73756666696369656e742062616c616e636520666f6044820152651c8818d85b1b60d21b60648201526084016108eb565b600080866001600160a01b03168587604051611e0991906125ea565b60006040518083038185875af1925050503d8060008114611e46576040519150601f19603f3d011682016040523d82523d6000602084013e611e4b565b606091505b5091509150611e5c87838387611e67565b979650505050505050565b60608315611ed6578251600003611ecf576001600160a01b0385163b611ecf5760405162461bcd60e51b815260206004820152601d60248201527f416464726573733a2063616c6c20746f206e6f6e2d636f6e747261637400000060448201526064016108eb565b5081611d84565b611d848383815115611eeb5781518083602001fd5b8060405162461bcd60e51b81526004016108eb9190611f9d565b604051806180000160405280610400905b604080516080810182526000808252602080830182905292820181905260608201528252600019909201910181611f165790505090565b60005b83811015611f68578181015183820152602001611f50565b50506000910152565b60008151808452611f89816020860160208601611f4d565b601f01601f19169290920160200192915050565b602081526000611b2e6020830184611f71565b600060208284031215611fc257600080fd5b81356001600160e01b031981168114611b2e57600080fd5b600060208284031215611fec57600080fd5b5035919050565b6001600160a01b038116811461147a57600080fd5b6000806040838503121561201b57600080fd5b82359150602083013561202d81611ff3565b809150509250929050565b60006020828403121561204a57600080fd5b8135611b2e81611ff3565b60008060006060848603121561206a57600080fd5b833560ff8116811461207b57600080fd5b95602085013595506040909401359392505050565b600080604083850312156120a357600080fd5b82356120ae81611ff3565b9150602083013561202d81611ff3565b600080604083850312156120d157600080fd5b82356001600160601b03811681146120e857600080fd5b946020939093013593505050565b634e487b7160e01b600052604160045260246000fd5b60006020828403121561211e57600080fd5b813567ffffffffffffffff8082111561213657600080fd5b818401915084601f83011261214a57600080fd5b81358181111561215c5761215c6120f6565b604051601f8201601f19908116603f01168101908382118183101715612184576121846120f6565b8160405282815287602084870101111561219d57600080fd5b826020860160208301376000928101602001929092525095945050505050565b620200008101818360005b61040081101561222b57815180516001600160a01b031684526020808201516001600160501b03168186015260408083015161ffff169086015260609182015167ffffffffffffffff1691850191909152608090930192909101906001016121c8565b50505092915050565b600181811c9082168061224857607f821691505b60208210810361226857634e487b7160e01b600052602260045260246000fd5b50919050565b634e487b7160e01b600052601160045260246000fd5b60ff828116828216039081111561084e5761084e61226e565b634e487b7160e01b600052603260045260246000fd5b600061ffff8083168181036122ca576122ca61226e565b6001019392505050565b6000602082840312156122e657600080fd5b5051919050565b6000602082840312156122ff57600080fd5b81518015158114611b2e57600080fd5b601f82111561087a57600081815260208120601f850160051c810160208610156123365750805b601f850160051c820191505b81811015610ea457828155600101612342565b815167ffffffffffffffff81111561236f5761236f6120f6565b6123838161237d8454612234565b8461230f565b602080601f8311600181146123b857600084156123a05750858301515b600019600386901b1c1916600185901b178555610ea4565b600085815260208120601f198616915b828110156123e7578886015182559484019460019091019084016123c8565b50858210156124055787850151600019600388901b60f8161c191681555b5050505050600190811b01905550565b808202811582820484141761084e5761084e61226e565b8082018082111561084e5761084e61226e565b6000600182016124515761245161226e565b5060010190565b600181815b808511156124935781600019048211156124795761247961226e565b8085161561248657918102915b93841c939080029061245d565b509250929050565b6000826124aa5750600161084e565b816124b75750600061084e565b81600181146124cd57600281146124d7576124f3565b600191505061084e565b60ff8411156124e8576124e861226e565b50506001821b61084e565b5060208310610133831016604e8410600b8410161715612516575081810a61084e565b6125208383612458565b80600019048211156125345761253461226e565b029392505050565b6000611b2e60ff84168361249b565b8181038181111561084e5761084e61226e565b7f416363657373436f6e74726f6c3a206163636f756e7420000000000000000000815260008351612596816017850160208801611f4d565b7001034b99036b4b9b9b4b733903937b6329607d1b60179184019182015283516125c7816028840160208801611f4d565b01602801949350505050565b6000816125e2576125e261226e565b506000190190565b600082516125fc818460208701611f4d565b919091019291505056fea26469706673582212204ce1e6293be1f13784ebcb4d93163513e81801a9afd6273264da638bac9ce21a64736f6c63430008150033",
  "linkReferences": {},
  "deployedLinkReferences": {}
}